{"abi":[{"type":"constructor","inputs":[{"name":"initialOwner","type":"address","internalType":"address"}],"stateMutability":"nonpayable"},{"type":"function","name":"FEE_DENOMINATOR","inputs":[],"outputs":[{"name":"","type":"uint256","internalType":"uint256"}],"stateMutability":"view"},{"type":"function","name":"MAX_OUTPUT_PERCENTAGE","inputs":[],"outputs":[{"name":"","type":"uint256","internalType":"uint256"}],"stateMutability":"view"},{"type":"function","name":"MINIMUM_LIQUIDITY","inputs":[],"outputs":[{"name":"","type":"uint256","internalType":"uint256"}],"stateMutability":"view"},{"type":"function","name":"MIN_OBSERVATIONS","inputs":[],"outputs":[{"name":"","type":"uint256","internalType":"uint256"}],"stateMutability":"view"},{"type":"function","name":"OBSERVATION_PERIOD","inputs":[],"outputs":[{"name":"","type":"uint256","internalType":"uint256"}],"stateMutability":"view"},{"type":"function","name":"addLiquidity","inputs":[{"name":"token","type":"address","internalType":"address"},{"name":"amount","type":"uint256","internalType":"uint256"}],"outputs":[],"stateMutability":"nonpayable"},{"type":"function","name":"addSupportedToken","inputs":[{"name":"token","type":"address","internalType":"address"}],"outputs":[],"stateMutability":"nonpayable"},{"type":"function","name":"feeNumerator","inputs":[],"outputs":[{"name":"","type":"uint256","internalType":"uint256"}],"stateMutability":"view"},{"type":"function","name":"getFee","inputs":[],"outputs":[{"name":"","type":"uint256","internalType":"uint256"}],"stateMutability":"view"},{"type":"function","name":"getTWAP","inputs":[{"name":"token","type":"address","internalType":"address"}],"outputs":[{"name":"","type":"uint256","internalType":"uint256"},{"name":"","type":"bool","internalType":"bool"}],"stateMutability":"view"},{"type":"function","name":"getTokenBalance","inputs":[{"name":"token","type":"address","internalType":"address"}],"outputs":[{"name":"","type":"uint256","internalType":"uint256"}],"stateMutability":"view"},{"type":"function","name":"owner","inputs":[],"outputs":[{"name":"","type":"address","internalType":"address"}],"stateMutability":"view"},{"type":"function","name":"pause","inputs":[],"outputs":[],"stateMutability":"nonpayable"},{"type":"function","name":"paused","inputs":[],"outputs":[{"name":"","type":"bool","internalType":"bool"}],"stateMutability":"view"},{"type":"function","name":"priceHistory","inputs":[{"name":"","type":"address","internalType":"address"},{"name":"","type":"uint256","internalType":"uint256"}],"outputs":[{"name":"timestamp","type":"uint256","internalType":"uint256"},{"name":"price","type":"uint256","internalType":"uint256"}],"stateMutability":"view"},{"type":"function","name":"removeAllLiquidity","inputs":[{"name":"token","type":"address","internalType":"address"}],"outputs":[{"name":"","type":"uint256","internalType":"uint256"}],"stateMutability":"nonpayable"},{"type":"function","name":"removeLiquidity","inputs":[{"name":"token","type":"address","internalType":"address"},{"name":"amount","type":"uint256","internalType":"uint256"}],"outputs":[{"name":"","type":"uint256","internalType":"uint256"}],"stateMutability":"nonpayable"},{"type":"function","name":"removeSupportedToken","inputs":[{"name":"token","type":"address","internalType":"address"}],"outputs":[],"stateMutability":"nonpayable"},{"type":"function","name":"renounceOwnership","inputs":[],"outputs":[],"stateMutability":"nonpayable"},{"type":"function","name":"setFee","inputs":[{"name":"newFeeNumerator","type":"uint256","internalType":"uint256"}],"outputs":[],"stateMutability":"nonpayable"},{"type":"function","name":"supportedTokens","inputs":[{"name":"","type":"address","internalType":"address"}],"outputs":[{"name":"","type":"bool","internalType":"bool"}],"stateMutability":"view"},{"type":"function","name":"swap","inputs":[{"name":"fromToken","type":"address","internalType":"address"},{"name":"toToken","type":"address","internalType":"address"},{"name":"amountIn","type":"uint256","internalType":"uint256"},{"name":"minAmountOut","type":"uint256","internalType":"uint256"}],"outputs":[],"stateMutability":"nonpayable"},{"type":"function","name":"syncBalance","inputs":[{"name":"token","type":"address","internalType":"address"}],"outputs":[],"stateMutability":"nonpayable"},{"type":"function","name":"tokenBalances","inputs":[{"name":"","type":"address","internalType":"address"}],"outputs":[{"name":"","type":"uint256","internalType":"uint256"}],"stateMutability":"view"},{"type":"function","name":"transferOwnership","inputs":[{"name":"newOwner","type":"address","internalType":"address"}],"outputs":[],"stateMutability":"nonpayable"},{"type":"function","name":"unpause","inputs":[],"outputs":[],"stateMutability":"nonpayable"},{"type":"function","name":"withdrawToken","inputs":[{"name":"token","type":"address","internalType":"address"},{"name":"amount","type":"uint256","internalType":"uint256"}],"outputs":[],"stateMutability":"nonpayable"},{"type":"event","name":"FeeUpdated","inputs":[{"name":"newFeeNumerator","type":"uint256","indexed":false,"internalType":"uint256"}],"anonymous":false},{"type":"event","name":"LiquidityAdded","inputs":[{"name":"token","type":"address","indexed":true,"internalType":"address"},{"name":"amount","type":"uint256","indexed":false,"internalType":"uint256"}],"anonymous":false},{"type":"event","name":"LiquidityRemoved","inputs":[{"name":"token","type":"address","indexed":true,"internalType":"address"},{"name":"amount","type":"uint256","indexed":false,"internalType":"uint256"}],"anonymous":false},{"type":"event","name":"OwnershipTransferred","inputs":[{"name":"previousOwner","type":"address","indexed":true,"internalType":"address"},{"name":"newOwner","type":"address","indexed":true,"internalType":"address"}],"anonymous":false},{"type":"event","name":"Paused","inputs":[{"name":"account","type":"address","indexed":false,"internalType":"address"}],"anonymous":false},{"type":"event","name":"SupportedTokenAdded","inputs":[{"name":"token","type":"address","indexed":true,"internalType":"address"}],"anonymous":false},{"type":"event","name":"TokenSwap","inputs":[{"name":"from","type":"address","indexed":true,"internalType":"address"},{"name":"to","type":"address","indexed":true,"internalType":"address"},{"name":"amountIn","type":"uint256","indexed":false,"internalType":"uint256"},{"name":"amountOut","type":"uint256","indexed":false,"internalType":"uint256"}],"anonymous":false},{"type":"event","name":"Unpaused","inputs":[{"name":"account","type":"address","indexed":false,"internalType":"address"}],"anonymous":false},{"type":"event","name":"ZeroLiquidityPrice","inputs":[{"name":"token","type":"address","indexed":true,"internalType":"address"}],"anonymous":false},{"type":"error","name":"AddressEmptyCode","inputs":[{"name":"target","type":"address","internalType":"address"}]},{"type":"error","name":"AddressInsufficientBalance","inputs":[{"name":"account","type":"address","internalType":"address"}]},{"type":"error","name":"EnforcedPause","inputs":[]},{"type":"error","name":"ExcessiveSwapImpact","inputs":[]},{"type":"error","name":"ExpectedPause","inputs":[]},{"type":"error","name":"FailedInnerCall","inputs":[]},{"type":"error","name":"InsufficientRemainingLiquidity","inputs":[]},{"type":"error","name":"InsufficientSwapperLiquidity","inputs":[]},{"type":"error","name":"InsufficientUserBalance","inputs":[]},{"type":"error","name":"OwnableInvalidOwner","inputs":[{"name":"owner","type":"address","internalType":"address"}]},{"type":"error","name":"OwnableUnauthorizedAccount","inputs":[{"name":"account","type":"address","internalType":"address"}]},{"type":"error","name":"ReentrancyGuardReentrantCall","inputs":[]},{"type":"error","name":"SafeERC20FailedOperation","inputs":[{"name":"token","type":"address","internalType":"address"}]},{"type":"error","name":"SameTokenSwap","inputs":[]},{"type":"error","name":"SlippageExceeded","inputs":[]},{"type":"error","name":"UnsupportedToken","inputs":[]}],"bytecode":{"object":"0x6080604052600360065534801561001557600080fd5b506040516119d63803806119d6833981016040819052610034916100d1565b806001600160a01b03811661006357604051631e4fbdf760e01b81526000600482015260240160405180910390fd5b61006c81610081565b5050600180556002805460ff19169055610101565b600080546001600160a01b038381166001600160a01b0319831681178455604051919092169283917f8be0079c531659141344cd1fd0a4f28419497f9722a3daafe3b4186f6b6457e09190a35050565b6000602082840312156100e357600080fd5b81516001600160a01b03811681146100fa57600080fd5b9392505050565b6118c6806101106000396000f3fe608060405234801561001057600080fd5b50600436106101a95760003560e01c80637a6a5e1b116100f9578063ba9a7a5611610097578063e0adaca211610071578063e0adaca214610378578063e86dea4a1461038b578063f2fde38b14610394578063fe029156146103a757600080fd5b8063ba9a7a5614610367578063ced72f8714610370578063d73792a91461036757600080fd5b80638da5cb5b116100d35780638da5cb5b146102fe5780639e281a9814610319578063a201ccf61461032c578063b724d0101461033f57600080fd5b80637a6a5e1b146102db578063833e5e1a146102ee5780638456cb59146102f657600080fd5b80635c975abb1161016657806369fe0e2d1161014057806369fe0e2d1461029a5780636d69fcaf146102ad578063715018a6146102c057806376319190146102c857600080fd5b80635c975abb1461023857806361f401e21461024f57806368c4ac261461027757600080fd5b806313821bf7146101ae57806339cee407146101ca5780633aecd0e3146101d25780633f4ba83a146101fb578063523fba7f146102055780635668870014610225575b600080fd5b6101b7610e1081565b6040519081526020015b60405180910390f35b6101b7600581565b6101b76101e03660046116d0565b6001600160a01b031660009081526004602052604090205490565b6102036103ba565b005b6101b76102133660046116d0565b60046020526000908152604090205481565b6102036102333660046116eb565b6103cc565b60025460ff165b60405190151581526020016101c1565b61026261025d3660046116eb565b6104d8565b604080519283526020830191909152016101c1565b61023f6102853660046116d0565b60036020526000908152604090205460ff1681565b6102036102a8366004611715565b610514565b6102036102bb3660046116d0565b610597565b6102036106a2565b6102036102d63660046116d0565b6106b4565b6101b76102e93660046116d0565b610789565b6101b7601e81565b6102036108b2565b6000546040516001600160a01b0390911681526020016101c1565b6102036103273660046116eb565b6108c2565b6101b761033a3660046116eb565b610962565b61035261034d3660046116d0565b610afb565b604080519283529015156020830152016101c1565b6101b76103e881565b6006546101b7565b6102036103863660046116d0565b610cb8565b6101b760065481565b6102036103a23660046116d0565b610d7b565b6102036103b536600461172e565b610db9565b6103c26110e1565b6103ca61110e565b565b6103d4611160565b6103dc61118a565b6001600160a01b03821660009081526003602052604090205460ff1661043c5760405162461bcd60e51b815260206004820152601060248201526f2ab739bab83837b93a32b22a37b5b2b760811b60448201526064015b60405180910390fd5b6104516001600160a01b0383163330846111ae565b6001600160a01b03821660009081526004602052604081208054839290610479908490611786565b90915550610488905082611215565b816001600160a01b03167fc17cea59c2955cb181b03393209566960365771dbba9dc3d510180e7cb312088826040516104c391815260200190565b60405180910390a26104d460018055565b5050565b600560205281600052604060002081815481106104f457600080fd5b600091825260209091206002909102018054600190910154909250905082565b61051c6110e1565b603281111561055c5760405162461bcd60e51b815260206004820152600c60248201526b08ccaca40e8dede40d0d2ced60a31b6044820152606401610433565b60068190556040518181527f8c4d35e54a3f2ef1134138fd8ea3daee6a3c89e10d2665996babdf70261e2c769060200160405180910390a150565b61059f6110e1565b6001600160a01b0381166105ed5760405162461bcd60e51b8152602060048201526015602482015274496e76616c696420746f6b656e206164647265737360581b6044820152606401610433565b6001600160a01b03811660009081526003602052604090205460ff16156106565760405162461bcd60e51b815260206004820152601760248201527f546f6b656e20616c726561647920737570706f727465640000000000000000006044820152606401610433565b6001600160a01b038116600081815260036020526040808220805460ff19166001179055517fd1be2e90bd3d24839d9dd94ad871068e1f9688b02fa43f2a62c9975dfa9de2d79190a250565b6106aa6110e1565b6103ca6000611390565b6106bc6110e1565b6001600160a01b03811661070a5760405162461bcd60e51b8152602060048201526015602482015274496e76616c696420746f6b656e206164647265737360581b6044820152606401610433565b6001600160a01b03811660009081526003602052604090205460ff166107685760405162461bcd60e51b8152602060048201526013602482015272151bdad95b881b9bdd081cdd5c1c1bdc9d1959606a1b6044820152606401610433565b6001600160a01b03166000908152600360205260409020805460ff19169055565b6000610793611160565b61079b61118a565b6001600160a01b03821660009081526003602052604090205460ff166107d35760405162461bcd60e51b815260040161043390611799565b6001600160a01b038216600090815260046020526040902054806108325760405162461bcd60e51b81526020600482015260166024820152754e6f206c697175696469747920746f2072656d6f766560501b6044820152606401610433565b6001600160a01b0383166000818152600460205260408120556108569033836113e0565b61085f83611215565b826001600160a01b03167fc2c3f06e49b9f15e7b4af9055e183b0d73362e033ad82a07dec9bf98401717198260405161089a91815260200190565b60405180910390a290506108ad60018055565b919050565b6108ba6110e1565b6103ca611416565b6108ca6110e1565b6108d2611160565b6001600160a01b03821660009081526004602052604090205481111561090b5760405163bdf40d9960e01b815260040160405180910390fd5b6001600160a01b038216600090815260046020526040812080548392906109339084906117c4565b9091555050600054610959906001600160a01b03166001600160a01b03841690836113e0565b6104d460018055565b600061096c6110e1565b610974611160565b61097c61118a565b6001600160a01b03831660009081526003602052604090205460ff166109b45760405162461bcd60e51b815260040161043390611799565b6040516370a0823160e01b81523060048201526000906001600160a01b038516906370a0823190602401602060405180830381865afa1580156109fb573d6000803e3d6000fd5b505050506040513d601f19601f82011682018060405250810190610a1f91906117d7565b905082811015610a6a5760405162461bcd60e51b8152602060048201526016602482015275496e73756666696369656e74206c697175696469747960501b6044820152606401610433565b610a7e6001600160a01b03851633856113e0565b610a8883826117c4565b6001600160a01b038516600090815260046020526040902055610aaa84611215565b836001600160a01b03167fc2c3f06e49b9f15e7b4af9055e183b0d73362e033ad82a07dec9bf984017171984604051610ae591815260200190565b60405180910390a2505060018055805b92915050565b6001600160a01b038116600090815260036020526040812054819060ff16610b355760405162461bcd60e51b815260040161043390611799565b6001600160a01b0383166000908152600560208190526040909120805490911115610b665750600093849350915050565b60008080610b7762015180426117c4565b905060008060005b8654811015610c3e576000878281548110610b9c57610b9c6117f0565b90600052602060002090600202016000015490506000888381548110610bc457610bc46117f0565b906000526020600020906002020160010154905085821015610be7575050610c36565b8415610c1f576000610bf986846117c4565b9050610c058186611806565b610c0f908a611786565b9850610c1b8189611786565b9750505b819450809350428210610c33575050610c3e565b50505b600101610b7f565b504282108015610c4e5750600082115b15610c85576000610c5f83426117c4565b9050610c6b8183611806565b610c759087611786565b9550610c818186611786565b9450505b83600003610c9e57506000988998509650505050505050565b610ca8848661181d565b9960019950975050505050505050565b6001600160a01b03811660009081526003602052604090205460ff16610cf05760405162461bcd60e51b815260040161043390611799565b6040516370a0823160e01b81523060048201526000906001600160a01b038316906370a0823190602401602060405180830381865afa158015610d37573d6000803e3d6000fd5b505050506040513d601f19601f82011682018060405250810190610d5b91906117d7565b6001600160a01b0390921660009081526004602052604090209190915550565b610d836110e1565b6001600160a01b038116610dad57604051631e4fbdf760e01b815260006004820152602401610433565b610db681611390565b50565b610dc1611160565b610dc961118a565b6001600160a01b03841660009081526003602052604090205460ff161580610e0a57506001600160a01b03831660009081526003602052604090205460ff16155b15610e285760405163350b944160e11b815260040160405180910390fd5b826001600160a01b0316846001600160a01b031603610e5a576040516310705ab560e21b815260040160405180910390fd5b6040516370a0823160e01b815233600482015282906001600160a01b038616906370a0823190602401602060405180830381865afa158015610ea0573d6000803e3d6000fd5b505050506040513d601f19601f82011682018060405250810190610ec491906117d7565b1015610ee3576040516324aa779360e21b815260040160405180910390fd5b6001600160a01b0383166000908152600460205260408120549003610f1b5760405163bdf40d9960e01b815260040160405180910390fd5b6000610f28858585611453565b6001600160a01b0385166000908152600460205260409020549091506103e890610f539083906117c4565b1015610f72576040516352e0c20b60e01b815260040160405180910390fd5b6001600160a01b038416600090815260046020526040902054606490610f9a90601e90611806565b610fa4919061181d565b811115610fc457604051631271ba5b60e01b815260040160405180910390fd5b81811015610fe557604051638199f5f360e01b815260040160405180910390fd5b610ffa6001600160a01b0386163330866111ae565b61100e6001600160a01b03851633836113e0565b6001600160a01b03851660009081526004602052604081208054859290611036908490611786565b90915550506001600160a01b038416600090815260046020526040812080548392906110639084906117c4565b90915550611072905085611215565b61107b84611215565b836001600160a01b0316856001600160a01b03167f1f2c1de040604eaf4a8c72b05bd7c16fae213f15cbde69ecf70dd3b97fef1f2f85846040516110c9929190918252602082015260400190565b60405180910390a3506110db60018055565b50505050565b6000546001600160a01b031633146103ca5760405163118cdaa760e01b8152336004820152602401610433565b6111166114cf565b6002805460ff191690557f5db9ee0a495bf2e6ff9c91a7834c1ba4fdd244a5e8aa4e537bd38aeae4b073aa335b6040516001600160a01b03909116815260200160405180910390a1565b60026001540361118357604051633ee5aeb560e01b815260040160405180910390fd5b6002600155565b60025460ff16156103ca5760405163d93c066560e01b815260040160405180910390fd5b6040516001600160a01b0384811660248301528381166044830152606482018390526110db9186918216906323b872dd906084015b604051602081830303815290604052915060e01b6020820180516001600160e01b0383818316178352505050506114f2565b60008061122183611555565b9150915080611263576040516001600160a01b038416907f89c86dc7d8f93b48343d1554b539fdd88a0de5fe2ac6914830d69c5962969afa90600090a2505050565b6001600160a01b03831660009081526005602052604090208054600419016113525760005b611294600160056117c4565b8110156112fc57816112a7826001611786565b815481106112b7576112b76117f0565b90600052602060002090600202018282815481106112d7576112d76117f0565b6000918252602090912082546002909202019081556001918201549082015501611288565b5060408051808201909152428152602081018490528161131e600160056117c4565b8154811061132e5761132e6117f0565b600091825260209182902083516002909202019081559101516001909101556110db565b604080518082019091524281526020808201858152835460018181018655600086815293909320935160029091029093019283555191015550505050565b600080546001600160a01b038381166001600160a01b0319831681178455604051919092169283917f8be0079c531659141344cd1fd0a4f28419497f9722a3daafe3b4186f6b6457e09190a35050565b6040516001600160a01b0383811660248301526044820183905261141191859182169063a9059cbb906064016111e3565b505050565b61141e61118a565b6002805460ff191660011790557f62e78cea01bee320cd4e420270b5ea74000d11b0c9f74754ebdbfc544b05a2586111433390565b6000806103e86006546103e861146991906117c4565b6114739085611806565b61147d919061181d565b6001600160a01b03808716600090815260046020526040808220549288168252902054919250906114ae8383611786565b6114b88483611806565b6114c2919061181d565b93505050505b9392505050565b60025460ff166103ca57604051638dfc202b60e01b815260040160405180910390fd5b60006115076001600160a01b038416836115b2565b9050805160001415801561152c57508080602001905181019061152a919061183f565b155b1561141157604051635274afe760e01b81526001600160a01b0384166004820152602401610433565b6001600160a01b03811660009081526004602052604081205481908082036115835750600093849350915050565b61159c816ec097ce7bc90715b34b9f100000000061181d565b6115a7906064611806565b946001945092505050565b60606114c88383600084600080856001600160a01b031684866040516115d89190611861565b60006040518083038185875af1925050503d8060008114611615576040519150601f19603f3d011682016040523d82523d6000602084013e61161a565b606091505b509150915061162a868383611634565b9695505050505050565b6060826116495761164482611690565b6114c8565b815115801561166057506001600160a01b0384163b155b1561168957604051639996b31560e01b81526001600160a01b0385166004820152602401610433565b50806114c8565b8051156116a05780518082602001fd5b604051630a12f52160e11b815260040160405180910390fd5b80356001600160a01b03811681146108ad57600080fd5b6000602082840312156116e257600080fd5b6114c8826116b9565b600080604083850312156116fe57600080fd5b611707836116b9565b946020939093013593505050565b60006020828403121561172757600080fd5b5035919050565b6000806000806080858703121561174457600080fd5b61174d856116b9565b935061175b602086016116b9565b93969395505050506040820135916060013590565b634e487b7160e01b600052601160045260246000fd5b80820180821115610af557610af5611770565b6020808252601190820152702ab739bab83837b93a32b2103a37b5b2b760791b604082015260600190565b81810381811115610af557610af5611770565b6000602082840312156117e957600080fd5b5051919050565b634e487b7160e01b600052603260045260246000fd5b8082028115828204841417610af557610af5611770565b60008261183a57634e487b7160e01b600052601260045260246000fd5b500490565b60006020828403121561185157600080fd5b815180151581146114c857600080fd5b6000825160005b818110156118825760208186018101518583015201611868565b50600092019182525091905056fea2646970667358221220679488cf45ad4c77d5ef0fc2056deecabce52a2294be539c3bce14cad425a21e64736f6c634300081a0033","linkReferences":{}},"methodIdentifiers":{"FEE_DENOMINATOR()":"d73792a9","MAX_OUTPUT_PERCENTAGE()":"833e5e1a","MINIMUM_LIQUIDITY()":"ba9a7a56","MIN_OBSERVATIONS()":"39cee407","OBSERVATION_PERIOD()":"13821bf7","addLiquidity(address,uint256)":"56688700","addSupportedToken(address)":"6d69fcaf","feeNumerator()":"e86dea4a","getFee()":"ced72f87","getTWAP(address)":"b724d010","getTokenBalance(address)":"3aecd0e3","owner()":"8da5cb5b","pause()":"8456cb59","paused()":"5c975abb","priceHistory(address,uint256)":"61f401e2","removeAllLiquidity(address)":"7a6a5e1b","removeLiquidity(address,uint256)":"a201ccf6","removeSupportedToken(address)":"76319190","renounceOwnership()":"715018a6","setFee(uint256)":"69fe0e2d","supportedTokens(address)":"68c4ac26","swap(address,address,uint256,uint256)":"fe029156","syncBalance(address)":"e0adaca2","tokenBalances(address)":"523fba7f","transferOwnership(address)":"f2fde38b","unpause()":"3f4ba83a","withdrawToken(address,uint256)":"9e281a98"},"id":36}